{
  "_format": "hh-sol-artifact-1",
  "contractName": "FundManagement",
  "sourceName": "contracts/FundManagement.sol",
  "abi": [
    {
      "inputs": [
        {
          "internalType": "address",
          "name": "_admin",
          "type": "address"
        },
        {
          "internalType": "uint256",
          "name": "_minBuyETH",
          "type": "uint256"
        }
      ],
      "stateMutability": "nonpayable",
      "type": "constructor"
    },
    {
      "anonymous": false,
      "inputs": [
        {
          "indexed": true,
          "internalType": "address",
          "name": "newStakeholder",
          "type": "address"
        },
        {
          "indexed": false,
          "internalType": "uint256",
          "name": "depositAmt",
          "type": "uint256"
        }
      ],
      "name": "Deposit",
      "type": "event"
    },
    {
      "anonymous": false,
      "inputs": [
        {
          "indexed": true,
          "internalType": "address",
          "name": "receiver",
          "type": "address"
        },
        {
          "indexed": false,
          "internalType": "uint256",
          "name": "spendingAmt",
          "type": "uint256"
        }
      ],
      "name": "NewSpending",
      "type": "event"
    },
    {
      "anonymous": false,
      "inputs": [
        {
          "indexed": true,
          "internalType": "address",
          "name": "executor",
          "type": "address"
        },
        {
          "indexed": false,
          "internalType": "uint256",
          "name": "spendingId",
          "type": "uint256"
        }
      ],
      "name": "SpendingExecuted",
      "type": "event"
    },
    {
      "anonymous": false,
      "inputs": [
        {
          "indexed": true,
          "internalType": "address",
          "name": "voter",
          "type": "address"
        },
        {
          "indexed": false,
          "internalType": "int256",
          "name": "vote",
          "type": "int256"
        }
      ],
      "name": "Vote",
      "type": "event"
    },
    {
      "inputs": [],
      "name": "admin",
      "outputs": [
        {
          "internalType": "address",
          "name": "",
          "type": "address"
        }
      ],
      "stateMutability": "view",
      "type": "function"
    },
    {
      "inputs": [
        {
          "internalType": "uint256",
          "name": "",
          "type": "uint256"
        },
        {
          "internalType": "address",
          "name": "",
          "type": "address"
        }
      ],
      "name": "approvals",
      "outputs": [
        {
          "internalType": "int256",
          "name": "",
          "type": "int256"
        }
      ],
      "stateMutability": "view",
      "type": "function"
    },
    {
      "inputs": [
        {
          "internalType": "uint256",
          "name": "spendingId",
          "type": "uint256"
        },
        {
          "internalType": "int256",
          "name": "vote",
          "type": "int256"
        }
      ],
      "name": "approveSpending",
      "outputs": [],
      "stateMutability": "nonpayable",
      "type": "function"
    },
    {
      "inputs": [
        {
          "internalType": "address",
          "name": "receiver",
          "type": "address"
        },
        {
          "internalType": "uint256",
          "name": "spendingAmt",
          "type": "uint256"
        },
        {
          "internalType": "string",
          "name": "_purpose",
          "type": "string"
        }
      ],
      "name": "createSpending",
      "outputs": [],
      "stateMutability": "nonpayable",
      "type": "function"
    },
    {
      "inputs": [
        {
          "internalType": "uint256",
          "name": "depositAmt",
          "type": "uint256"
        }
      ],
      "name": "deposit",
      "outputs": [],
      "stateMutability": "payable",
      "type": "function"
    },
    {
      "inputs": [
        {
          "internalType": "uint256",
          "name": "spendingId",
          "type": "uint256"
        }
      ],
      "name": "executeSpending",
      "outputs": [],
      "stateMutability": "nonpayable",
      "type": "function"
    },
    {
      "inputs": [],
      "name": "minBuyETH",
      "outputs": [
        {
          "internalType": "uint256",
          "name": "",
          "type": "uint256"
        }
      ],
      "stateMutability": "view",
      "type": "function"
    },
    {
      "inputs": [],
      "name": "shareToken",
      "outputs": [
        {
          "internalType": "address",
          "name": "",
          "type": "address"
        }
      ],
      "stateMutability": "view",
      "type": "function"
    },
    {
      "inputs": [
        {
          "internalType": "uint256",
          "name": "",
          "type": "uint256"
        }
      ],
      "name": "spending",
      "outputs": [
        {
          "internalType": "string",
          "name": "purpose",
          "type": "string"
        },
        {
          "internalType": "uint256",
          "name": "amt",
          "type": "uint256"
        },
        {
          "internalType": "address",
          "name": "receiver",
          "type": "address"
        },
        {
          "internalType": "bool",
          "name": "executed",
          "type": "bool"
        },
        {
          "internalType": "uint256",
          "name": "approvalCount",
          "type": "uint256"
        }
      ],
      "stateMutability": "view",
      "type": "function"
    },
    {
      "inputs": [],
      "name": "spendingIdCounter",
      "outputs": [
        {
          "internalType": "uint256",
          "name": "",
          "type": "uint256"
        }
      ],
      "stateMutability": "view",
      "type": "function"
    },
    {
      "inputs": [
        {
          "internalType": "address",
          "name": "",
          "type": "address"
        }
      ],
      "name": "stakeholders",
      "outputs": [
        {
          "internalType": "uint256",
          "name": "",
          "type": "uint256"
        }
      ],
      "stateMutability": "view",
      "type": "function"
    },
    {
      "inputs": [],
      "name": "tokenMinted",
      "outputs": [
        {
          "internalType": "uint256",
          "name": "",
          "type": "uint256"
        }
      ],
      "stateMutability": "view",
      "type": "function"
    },
    {
      "inputs": [
        {
          "internalType": "uint256",
          "name": "transferAmt",
          "type": "uint256"
        }
      ],
      "name": "transfer",
      "outputs": [],
      "stateMutability": "nonpayable",
      "type": "function"
    }
  ],
  "bytecode": "0x6080604052604b6005553480156200001657600080fd5b50604051620045043803806200450483398181016040528101906200003c9190620001b8565b81600160006101000a81548173ffffffffffffffffffffffffffffffffffffffff021916908373ffffffffffffffffffffffffffffffffffffffff1602179055508060028190555030604051620000939062000105565b6200009f919062000210565b604051809103906000f080158015620000bc573d6000803e3d6000fd5b50600660006101000a81548173ffffffffffffffffffffffffffffffffffffffff021916908373ffffffffffffffffffffffffffffffffffffffff16021790555050506200022d565b611fc4806200254083390190565b600080fd5b600073ffffffffffffffffffffffffffffffffffffffff82169050919050565b6000620001458262000118565b9050919050565b620001578162000138565b81146200016357600080fd5b50565b60008151905062000177816200014c565b92915050565b6000819050919050565b62000192816200017d565b81146200019e57600080fd5b50565b600081519050620001b28162000187565b92915050565b60008060408385031215620001d257620001d162000113565b5b6000620001e28582860162000166565b9250506020620001f585828601620001a1565b9150509250929050565b6200020a8162000138565b82525050565b6000602082019050620002276000830184620001ff565b92915050565b612303806200023d6000396000f3fe6080604052600436106100c25760003560e01c80639b0be3e01161007f578063bc570c4711610059578063bc570c4714610247578063c07cfca914610288578063e12f2f99146102c5578063f851a440146102ee576100c2565b80639b0be3e0146101c5578063ab2850da146101ee578063b6b55f251461022b576100c2565b806312514bba146100c757806322c451af146100f05780633930d3dd1461011957806348585215146101445780636c9fa59e1461016f578063963563551461019a575b600080fd5b3480156100d357600080fd5b506100ee60048036038101906100e991906113a6565b610319565b005b3480156100fc57600080fd5b5061011760048036038101906101129190611577565b610507565b005b34801561012557600080fd5b5061012e61077a565b60405161013b91906115f5565b60405180910390f35b34801561015057600080fd5b50610159610780565b60405161016691906115f5565b60405180910390f35b34801561017b57600080fd5b50610184610786565b604051610191919061161f565b60405180910390f35b3480156101a657600080fd5b506101af6107ac565b6040516101bc91906115f5565b60405180910390f35b3480156101d157600080fd5b506101ec60048036038101906101e791906113a6565b6107b2565b005b3480156101fa57600080fd5b506102156004803603810190610210919061163a565b610b48565b6040516102229190611693565b60405180910390f35b610245600480360381019061024091906113a6565b610b6d565b005b34801561025357600080fd5b5061026e600480360381019061026991906113a6565b610d55565b60405161027f959493929190611751565b60405180910390f35b34801561029457600080fd5b506102af60048036038101906102aa91906117ab565b610e40565b6040516102bc91906115f5565b60405180910390f35b3480156102d157600080fd5b506102ec60048036038101906102e79190611804565b610e58565b005b3480156102fa57600080fd5b50610303611293565b604051610310919061161f565b60405180910390f35b600a6002546103289190611873565b81101561036a576040517f08c379a00000000000000000000000000000000000000000000000000000000081526004016103619061193f565b60405180910390fd5b6000600a82610379919061198e565b9050600360003373ffffffffffffffffffffffffffffffffffffffff1673ffffffffffffffffffffffffffffffffffffffff168152602001908152602001600020548111156103fd576040517f08c379a00000000000000000000000000000000000000000000000000000000081526004016103f490611a31565b60405180910390fd5b600660009054906101000a900473ffffffffffffffffffffffffffffffffffffffff1673ffffffffffffffffffffffffffffffffffffffff1663a9059cbb33846040518363ffffffff1660e01b815260040161045a929190611a51565b602060405180830381600087803b15801561047457600080fd5b505af1158015610488573d6000803e3d6000fd5b505050506040513d601f19601f820116820180604052508101906104ac9190611aa6565b5080600360003373ffffffffffffffffffffffffffffffffffffffff1673ffffffffffffffffffffffffffffffffffffffff16815260200190815260200160002060008282546104fc9190611ad3565b925050819055505050565b600160009054906101000a900473ffffffffffffffffffffffffffffffffffffffff1673ffffffffffffffffffffffffffffffffffffffff163373ffffffffffffffffffffffffffffffffffffffff1614610597576040517f08c379a000000000000000000000000000000000000000000000000000000000815260040161058e90611b53565b60405180910390fd5b600082116105da576040517f08c379a00000000000000000000000000000000000000000000000000000000081526004016105d190611be5565b60405180910390fd5b600081511161061e576040517f08c379a000000000000000000000000000000000000000000000000000000000815260040161061590611c51565b60405180910390fd5b6040518060a001604052808281526020018381526020018473ffffffffffffffffffffffffffffffffffffffff168152602001600015158152602001600081525060046000600854815260200190815260200160002060008201518160000190805190602001906106909291906112b9565b506020820151816001015560408201518160020160006101000a81548173ffffffffffffffffffffffffffffffffffffffff021916908373ffffffffffffffffffffffffffffffffffffffff16021790555060608201518160020160146101000a81548160ff021916908315150217905550608082015181600301559050506008600081548092919061072290611c71565b91905055508273ffffffffffffffffffffffffffffffffffffffff167f8e386a4526cf1ee18c15d781328393b2c66e80d425eb4ec4ed017436bcedcc8d8360405161076d91906115f5565b60405180910390a2505050565b60025481565b60085481565b600660009054906101000a900473ffffffffffffffffffffffffffffffffffffffff1681565b60075481565b600160009054906101000a900473ffffffffffffffffffffffffffffffffffffffff1673ffffffffffffffffffffffffffffffffffffffff163373ffffffffffffffffffffffffffffffffffffffff1614610842576040517f08c379a000000000000000000000000000000000000000000000000000000000815260040161083990611d06565b60405180910390fd5b6008548110610886576040517f08c379a000000000000000000000000000000000000000000000000000000000815260040161087d90611d72565b60405180910390fd5b600015156004600083815260200190815260200160002060020160149054906101000a900460ff161515146108f0576040517f08c379a00000000000000000000000000000000000000000000000000000000081526004016108e790611dde565b60405180910390fd5b60008060075411156109305760075460046000848152602001908152602001600020600301546103e86109239190611873565b61092d919061198e565b90505b600554811015610975576040517f08c379a000000000000000000000000000000000000000000000000000000000815260040161096c90611e4a565b60405180910390fd5b60046000838152602001908152602001600020600101544710156109ce576040517f08c379a00000000000000000000000000000000000000000000000000000000081526004016109c590611eb6565b60405180910390fd5b60016004600084815260200190815260200160002060020160146101000a81548160ff02191690831515021790555060006004600084815260200190815260200160002060020160009054906101000a900473ffffffffffffffffffffffffffffffffffffffff1673ffffffffffffffffffffffffffffffffffffffff166004600085815260200190815260200160002060010154604051610a6f90611f07565b60006040518083038185875af1925050503d8060008114610aac576040519150601f19603f3d011682016040523d82523d6000602084013e610ab1565b606091505b5050905080610af5576040517f08c379a0000000000000000000000000000000000000000000000000000000008152600401610aec90611f68565b60405180910390fd5b3373ffffffffffffffffffffffffffffffffffffffff167fa12af03bd76472b1d623840a7a69c81bf67dd0890b8ad2197b838cde14e9c51b84604051610b3b91906115f5565b60405180910390a2505050565b6000602052816000526040600020602052806000526040600020600091509150505481565b600254811015610bb2576040517f08c379a0000000000000000000000000000000000000000000000000000000008152600401610ba990611ffa565b60405180910390fd5b803414610bf4576040517f08c379a0000000000000000000000000000000000000000000000000000000008152600401610beb9061208c565b60405180910390fd5b6000600a82610c039190611873565b9050600660009054906101000a900473ffffffffffffffffffffffffffffffffffffffff1673ffffffffffffffffffffffffffffffffffffffff166340c10f1933836040518363ffffffff1660e01b8152600401610c62929190611a51565b600060405180830381600087803b158015610c7c57600080fd5b505af1158015610c90573d6000803e3d6000fd5b505050508060076000828254610ca691906120ac565b9250508190555081600360003373ffffffffffffffffffffffffffffffffffffffff1673ffffffffffffffffffffffffffffffffffffffff1681526020019081526020016000206000828254610cfc91906120ac565b925050819055503373ffffffffffffffffffffffffffffffffffffffff167fe1fffcc4923d04b559f4d29a8bfc6cda04eb5b0d3c460751c2402c5c5cc9109c83604051610d4991906115f5565b60405180910390a25050565b6004602052806000526040600020600091509050806000018054610d7890612131565b80601f0160208091040260200160405190810160405280929190818152602001828054610da490612131565b8015610df15780601f10610dc657610100808354040283529160200191610df1565b820191906000526020600020905b815481529060010190602001808311610dd457829003601f168201915b5050505050908060010154908060020160009054906101000a900473ffffffffffffffffffffffffffffffffffffffff16908060020160149054906101000a900460ff16908060030154905085565b60036020528060005260406000206000915090505481565b6000600360003373ffffffffffffffffffffffffffffffffffffffff1673ffffffffffffffffffffffffffffffffffffffff1681526020019081526020016000205411610eda576040517f08c379a0000000000000000000000000000000000000000000000000000000008152600401610ed1906121d5565b60405180910390fd5b6001811480610f0857507fffffffffffffffffffffffffffffffffffffffffffffffffffffffffffffffff81145b610f47576040517f08c379a0000000000000000000000000000000000000000000000000000000008152600401610f3e90612241565b60405180910390fd5b6008548210610f8b576040517f08c379a0000000000000000000000000000000000000000000000000000000008152600401610f8290611d72565b60405180910390fd5b600015156004600084815260200190815260200160002060020160149054906101000a900460ff16151514610ff5576040517f08c379a0000000000000000000000000000000000000000000000000000000008152600401610fec90611dde565b60405180910390fd5b600080600084815260200190815260200160002060003373ffffffffffffffffffffffffffffffffffffffff1673ffffffffffffffffffffffffffffffffffffffff1681526020019081526020016000205414611087576040517f08c379a000000000000000000000000000000000000000000000000000000000815260040161107e906122ad565b60405180910390fd5b8060008084815260200190815260200160002060003373ffffffffffffffffffffffffffffffffffffffff1673ffffffffffffffffffffffffffffffffffffffff16815260200190815260200160002081905550600181141561115557600360003373ffffffffffffffffffffffffffffffffffffffff1673ffffffffffffffffffffffffffffffffffffffff1681526020019081526020016000205460046000848152602001908152602001600020600301600082825461114991906120ac565b92505081905550611241565b600360003373ffffffffffffffffffffffffffffffffffffffff1673ffffffffffffffffffffffffffffffffffffffff168152602001908152602001600020546004600084815260200190815260200160002060030154111561122357600360003373ffffffffffffffffffffffffffffffffffffffff1673ffffffffffffffffffffffffffffffffffffffff168152602001908152602001600020546004600084815260200190815260200160002060030160008282546112179190611ad3565b92505081905550611240565b600060046000848152602001908152602001600020600301819055505b5b3373ffffffffffffffffffffffffffffffffffffffff167f30765414d71f0958c667a2404100f9797fdb8149724871b2c42042ee08480d7e826040516112879190611693565b60405180910390a25050565b600160009054906101000a900473ffffffffffffffffffffffffffffffffffffffff1681565b8280546112c590612131565b90600052602060002090601f0160209004810192826112e7576000855561132e565b82601f1061130057805160ff191683800117855561132e565b8280016001018555821561132e579182015b8281111561132d578251825591602001919060010190611312565b5b50905061133b919061133f565b5090565b5b80821115611358576000816000905550600101611340565b5090565b6000604051905090565b600080fd5b600080fd5b6000819050919050565b61138381611370565b811461138e57600080fd5b50565b6000813590506113a08161137a565b92915050565b6000602082840312156113bc576113bb611366565b5b60006113ca84828501611391565b91505092915050565b600073ffffffffffffffffffffffffffffffffffffffff82169050919050565b60006113fe826113d3565b9050919050565b61140e816113f3565b811461141957600080fd5b50565b60008135905061142b81611405565b92915050565b600080fd5b600080fd5b6000601f19601f8301169050919050565b7f4e487b7100000000000000000000000000000000000000000000000000000000600052604160045260246000fd5b6114848261143b565b810181811067ffffffffffffffff821117156114a3576114a261144c565b5b80604052505050565b60006114b661135c565b90506114c2828261147b565b919050565b600067ffffffffffffffff8211156114e2576114e161144c565b5b6114eb8261143b565b9050602081019050919050565b82818337600083830152505050565b600061151a611515846114c7565b6114ac565b90508281526020810184848401111561153657611535611436565b5b6115418482856114f8565b509392505050565b600082601f83011261155e5761155d611431565b5b813561156e848260208601611507565b91505092915050565b6000806000606084860312156115905761158f611366565b5b600061159e8682870161141c565b93505060206115af86828701611391565b925050604084013567ffffffffffffffff8111156115d0576115cf61136b565b5b6115dc86828701611549565b9150509250925092565b6115ef81611370565b82525050565b600060208201905061160a60008301846115e6565b92915050565b611619816113f3565b82525050565b60006020820190506116346000830184611610565b92915050565b6000806040838503121561165157611650611366565b5b600061165f85828601611391565b92505060206116708582860161141c565b9150509250929050565b6000819050919050565b61168d8161167a565b82525050565b60006020820190506116a86000830184611684565b92915050565b600081519050919050565b600082825260208201905092915050565b60005b838110156116e85780820151818401526020810190506116cd565b838111156116f7576000848401525b50505050565b6000611708826116ae565b61171281856116b9565b93506117228185602086016116ca565b61172b8161143b565b840191505092915050565b60008115159050919050565b61174b81611736565b82525050565b600060a082019050818103600083015261176b81886116fd565b905061177a60208301876115e6565b6117876040830186611610565b6117946060830185611742565b6117a160808301846115e6565b9695505050505050565b6000602082840312156117c1576117c0611366565b5b60006117cf8482850161141c565b91505092915050565b6117e18161167a565b81146117ec57600080fd5b50565b6000813590506117fe816117d8565b92915050565b6000806040838503121561181b5761181a611366565b5b600061182985828601611391565b925050602061183a858286016117ef565b9150509250929050565b7f4e487b7100000000000000000000000000000000000000000000000000000000600052601160045260246000fd5b600061187e82611370565b915061188983611370565b9250817fffffffffffffffffffffffffffffffffffffffffffffffffffffffffffffffff04831182151516156118c2576118c1611844565b5b828202905092915050565b7f7472616e7366657220616d6f756e74206d75737420626520677265617465722060008201527f7468616e203120464d44203d20302e3120455448000000000000000000000000602082015250565b60006119296034836116b9565b9150611934826118cd565b604082019050919050565b600060208201905081810360008301526119588161191c565b9050919050565b7f4e487b7100000000000000000000000000000000000000000000000000000000600052601260045260246000fd5b600061199982611370565b91506119a483611370565b9250826119b4576119b361195f565b5b828204905092915050565b7f7472616e7366657220616d6f756e742069732067726561746572207468616e2060008201527f73656e64657227732062616c616e636500000000000000000000000000000000602082015250565b6000611a1b6030836116b9565b9150611a26826119bf565b604082019050919050565b60006020820190508181036000830152611a4a81611a0e565b9050919050565b6000604082019050611a666000830185611610565b611a7360208301846115e6565b9392505050565b611a8381611736565b8114611a8e57600080fd5b50565b600081519050611aa081611a7a565b92915050565b600060208284031215611abc57611abb611366565b5b6000611aca84828501611a91565b91505092915050565b6000611ade82611370565b9150611ae983611370565b925082821015611afc57611afb611844565b5b828203905092915050565b7f4f6e6c792061646d696e2063616e20637265617465207370656e64696e670000600082015250565b6000611b3d601e836116b9565b9150611b4882611b07565b602082019050919050565b60006020820190508181036000830152611b6c81611b30565b9050919050565b7f5370656e64696e6720616d6f756e742073686f756c642062652067726561746560008201527f72207468616e2030000000000000000000000000000000000000000000000000602082015250565b6000611bcf6028836116b9565b9150611bda82611b73565b604082019050919050565b60006020820190508181036000830152611bfe81611bc2565b9050919050565b7f507572706f73652073686f756c64206e6f7420626520656d7074790000000000600082015250565b6000611c3b601b836116b9565b9150611c4682611c05565b602082019050919050565b60006020820190508181036000830152611c6a81611c2e565b9050919050565b6000611c7c82611370565b91507fffffffffffffffffffffffffffffffffffffffffffffffffffffffffffffffff821415611caf57611cae611844565b5b600182019050919050565b7f4f6e6c792061646d696e2063616e2065786563757465207370656e64696e6700600082015250565b6000611cf0601f836116b9565b9150611cfb82611cba565b602082019050919050565b60006020820190508181036000830152611d1f81611ce3565b9050919050565b7f496e76616c6964207370656e64696e6749640000000000000000000000000000600082015250565b6000611d5c6012836116b9565b9150611d6782611d26565b602082019050919050565b60006020820190508181036000830152611d8b81611d4f565b9050919050565b7f5370656e64696e6720686173206265656e206578656375746564000000000000600082015250565b6000611dc8601a836116b9565b9150611dd382611d92565b602082019050919050565b60006020820190508181036000830152611df781611dbb565b9050919050565b7f4e6f7420656e6f75676820617070726f76616c73000000000000000000000000600082015250565b6000611e346014836116b9565b9150611e3f82611dfe565b602082019050919050565b60006020820190508181036000830152611e6381611e27565b9050919050565b7f4e6f7420656e6f7567682062616c616e63650000000000000000000000000000600082015250565b6000611ea06012836116b9565b9150611eab82611e6a565b602082019050919050565b60006020820190508181036000830152611ecf81611e93565b9050919050565b600081905092915050565b50565b6000611ef1600083611ed6565b9150611efc82611ee1565b600082019050919050565b6000611f1282611ee4565b9150819050919050565b7f4661696c656420746f2073656e64204574686572000000000000000000000000600082015250565b6000611f526014836116b9565b9150611f5d82611f1c565b602082019050919050565b60006020820190508181036000830152611f8181611f45565b9050919050565b7f4465706f73697420616d6f756e74206973206c657373207468616e206d696e4260008201527f7579455448000000000000000000000000000000000000000000000000000000602082015250565b6000611fe46025836116b9565b9150611fef82611f88565b604082019050919050565b6000602082019050818103600083015261201381611fd7565b9050919050565b7f4554482073656e7420616e64206465706f736974416d74206e6f74206d61636860008201527f74696e6700000000000000000000000000000000000000000000000000000000602082015250565b60006120766024836116b9565b91506120818261201a565b604082019050919050565b600060208201905081810360008301526120a581612069565b9050919050565b60006120b782611370565b91506120c283611370565b9250827fffffffffffffffffffffffffffffffffffffffffffffffffffffffffffffffff038211156120f7576120f6611844565b5b828201905092915050565b7f4e487b7100000000000000000000000000000000000000000000000000000000600052602260045260246000fd5b6000600282049050600182168061214957607f821691505b6020821081141561215d5761215c612102565b5b50919050565b7f4f6e6c79207374616b65686f6c646572732063616e20617070726f766520737060008201527f656e64696e670000000000000000000000000000000000000000000000000000602082015250565b60006121bf6026836116b9565b91506121ca82612163565b604082019050919050565b600060208201905081810360008301526121ee816121b2565b9050919050565b7f566f74652073686f756c642062652031206f72202d3100000000000000000000600082015250565b600061222b6016836116b9565b9150612236826121f5565b602082019050919050565b6000602082019050818103600083015261225a8161221e565b9050919050565b7f53656e6465722068617320616c726561647920766f7465640000000000000000600082015250565b60006122976018836116b9565b91506122a282612261565b602082019050919050565b600060208201905081810360008301526122c68161228a565b905091905056fea26469706673582212201b00e4ac7a2aaf2fdfe5428cc3a9d4f383498d04d1faea4ea00b0a4f06c6303664736f6c6343000809003360806040523480156200001157600080fd5b5060405162001fc438038062001fc48339818101604052810190620000379190620002b3565b6040518060400160405280600881526020017f464d44546f6b656e0000000000000000000000000000000000000000000000008152506040518060400160405280600381526020017f464d4400000000000000000000000000000000000000000000000000000000008152508160039080519060200190620000bb92919062000199565b508060049080519060200190620000d492919062000199565b50505080600560006101000a81548173ffffffffffffffffffffffffffffffffffffffff021916908373ffffffffffffffffffffffffffffffffffffffff160217905550600160066000600560009054906101000a900473ffffffffffffffffffffffffffffffffffffffff1673ffffffffffffffffffffffffffffffffffffffff1673ffffffffffffffffffffffffffffffffffffffff16815260200190815260200160002060006101000a81548160ff021916908315150217905550506200034a565b828054620001a79062000314565b90600052602060002090601f016020900481019282620001cb576000855562000217565b82601f10620001e657805160ff191683800117855562000217565b8280016001018555821562000217579182015b8281111562000216578251825591602001919060010190620001f9565b5b5090506200022691906200022a565b5090565b5b80821115620002455760008160009055506001016200022b565b5090565b600080fd5b600073ffffffffffffffffffffffffffffffffffffffff82169050919050565b60006200027b826200024e565b9050919050565b6200028d816200026e565b81146200029957600080fd5b50565b600081519050620002ad8162000282565b92915050565b600060208284031215620002cc57620002cb62000249565b5b6000620002dc848285016200029c565b91505092915050565b7f4e487b7100000000000000000000000000000000000000000000000000000000600052602260045260246000fd5b600060028204905060018216806200032d57607f821691505b60208210811415620003445762000343620002e5565b5b50919050565b611c6a806200035a6000396000f3fe608060405234801561001057600080fd5b506004361061010b5760003560e01c806395d89b41116100a2578063aa271e1a11610071578063aa271e1a146102f4578063adec9ba214610324578063dd62ed3e14610340578063f851a44014610370578063fbef5a061461038e5761010b565b806395d89b4114610246578063a389783e14610264578063a457c2d714610294578063a9059cbb146102c45761010b565b8063313ce567116100de578063313ce567146101ac57806339509351146101ca57806340c10f19146101fa57806370a08231146102165761010b565b806306fdde0314610110578063095ea7b31461012e57806318160ddd1461015e57806323b872dd1461017c575b600080fd5b6101186103aa565b604051610125919061126c565b60405180910390f35b61014860048036038101906101439190611327565b61043c565b6040516101559190611382565b60405180910390f35b61016661045f565b60405161017391906113ac565b60405180910390f35b610196600480360381019061019191906113c7565b610469565b6040516101a39190611382565b60405180910390f35b6101b4610498565b6040516101c19190611436565b60405180910390f35b6101e460048036038101906101df9190611327565b6104a1565b6040516101f19190611382565b60405180910390f35b610214600480360381019061020f9190611327565b6104d8565b005b610230600480360381019061022b9190611451565b6105d8565b60405161023d91906113ac565b60405180910390f35b61024e610620565b60405161025b919061126c565b60405180910390f35b61027e6004803603810190610279919061147e565b6106b2565b60405161028b9190611382565b60405180910390f35b6102ae60048036038101906102a99190611327565b6106e1565b6040516102bb9190611382565b60405180910390f35b6102de60048036038101906102d99190611327565b610758565b6040516102eb9190611382565b60405180910390f35b61030e60048036038101906103099190611451565b610939565b60405161031b9190611382565b60405180910390f35b61033e600480360381019061033991906114ea565b610959565b005b61035a6004803603810190610355919061147e565b6109f1565b60405161036791906113ac565b60405180910390f35b610378610a78565b6040516103859190611539565b60405180910390f35b6103a860048036038101906103a391906114ea565b610a9e565b005b6060600380546103b990611583565b80601f01602080910402602001604051908101604052809291908181526020018280546103e590611583565b80156104325780601f1061040757610100808354040283529160200191610432565b820191906000526020600020905b81548152906001019060200180831161041557829003601f168201915b5050505050905090565b600080610447610b89565b9050610454818585610b91565b600191505092915050565b6000600254905090565b600080610474610b89565b9050610481858285610d5c565b61048c858585610de8565b60019150509392505050565b60006012905090565b6000806104ac610b89565b90506104cd8185856104be85896109f1565b6104c891906115e4565b610b91565b600191505092915050565b600660003373ffffffffffffffffffffffffffffffffffffffff1673ffffffffffffffffffffffffffffffffffffffff16815260200190815260200160002060009054906101000a900460ff16610564576040517f08c379a000000000000000000000000000000000000000000000000000000000815260040161055b906116ac565b60405180910390fd5b61056e8282611069565b8173ffffffffffffffffffffffffffffffffffffffff16600073ffffffffffffffffffffffffffffffffffffffff167fddf252ad1be2c89b69c2b068fc378daa952ba7f163c4a11628f55a4df523b3ef836040516105cc91906113ac565b60405180910390a35050565b60008060008373ffffffffffffffffffffffffffffffffffffffff1673ffffffffffffffffffffffffffffffffffffffff168152602001908152602001600020549050919050565b60606004805461062f90611583565b80601f016020809104026020016040519081016040528092919081815260200182805461065b90611583565b80156106a85780601f1061067d576101008083540402835291602001916106a8565b820191906000526020600020905b81548152906001019060200180831161068b57829003601f168201915b5050505050905090565b60076020528160005260406000206020528060005260406000206000915091509054906101000a900460ff1681565b6000806106ec610b89565b905060006106fa82866109f1565b90508381101561073f576040517f08c379a00000000000000000000000000000000000000000000000000000000081526004016107369061173e565b60405180910390fd5b61074c8286868403610b91565b60019250505092915050565b6000600560009054906101000a900473ffffffffffffffffffffffffffffffffffffffff1673ffffffffffffffffffffffffffffffffffffffff163373ffffffffffffffffffffffffffffffffffffffff16148061083c5750600760008473ffffffffffffffffffffffffffffffffffffffff1673ffffffffffffffffffffffffffffffffffffffff16815260200190815260200160002060003373ffffffffffffffffffffffffffffffffffffffff1673ffffffffffffffffffffffffffffffffffffffff16815260200190815260200160002060009054906101000a900460ff165b61087b576040517f08c379a0000000000000000000000000000000000000000000000000000000008152600401610872906117f6565b60405180910390fd5b6108a883600560009054906101000a900473ffffffffffffffffffffffffffffffffffffffff1684610de8565b600560009054906101000a900473ffffffffffffffffffffffffffffffffffffffff1673ffffffffffffffffffffffffffffffffffffffff168373ffffffffffffffffffffffffffffffffffffffff167fddf252ad1be2c89b69c2b068fc378daa952ba7f163c4a11628f55a4df523b3ef8460405161092791906113ac565b60405180910390a36001905092915050565b60066020528060005260406000206000915054906101000a900460ff1681565b80600760003373ffffffffffffffffffffffffffffffffffffffff1673ffffffffffffffffffffffffffffffffffffffff16815260200190815260200160002060008473ffffffffffffffffffffffffffffffffffffffff1673ffffffffffffffffffffffffffffffffffffffff16815260200190815260200160002060006101000a81548160ff0219169083151502179055505050565b6000600160008473ffffffffffffffffffffffffffffffffffffffff1673ffffffffffffffffffffffffffffffffffffffff16815260200190815260200160002060008373ffffffffffffffffffffffffffffffffffffffff1673ffffffffffffffffffffffffffffffffffffffff16815260200190815260200160002054905092915050565b600560009054906101000a900473ffffffffffffffffffffffffffffffffffffffff1681565b600560009054906101000a900473ffffffffffffffffffffffffffffffffffffffff1673ffffffffffffffffffffffffffffffffffffffff163373ffffffffffffffffffffffffffffffffffffffff1614610b2e576040517f08c379a0000000000000000000000000000000000000000000000000000000008152600401610b2590611862565b60405180910390fd5b80600660008473ffffffffffffffffffffffffffffffffffffffff1673ffffffffffffffffffffffffffffffffffffffff16815260200190815260200160002060006101000a81548160ff0219169083151502179055505050565b600033905090565b600073ffffffffffffffffffffffffffffffffffffffff168373ffffffffffffffffffffffffffffffffffffffff161415610c01576040517f08c379a0000000000000000000000000000000000000000000000000000000008152600401610bf8906118f4565b60405180910390fd5b600073ffffffffffffffffffffffffffffffffffffffff168273ffffffffffffffffffffffffffffffffffffffff161415610c71576040517f08c379a0000000000000000000000000000000000000000000000000000000008152600401610c6890611986565b60405180910390fd5b80600160008573ffffffffffffffffffffffffffffffffffffffff1673ffffffffffffffffffffffffffffffffffffffff16815260200190815260200160002060008473ffffffffffffffffffffffffffffffffffffffff1673ffffffffffffffffffffffffffffffffffffffff168152602001908152602001600020819055508173ffffffffffffffffffffffffffffffffffffffff168373ffffffffffffffffffffffffffffffffffffffff167f8c5be1e5ebec7d5bd14f71427d1e84f3dd0314c0f7b2291e5b200ac8c7c3b92583604051610d4f91906113ac565b60405180910390a3505050565b6000610d6884846109f1565b90507fffffffffffffffffffffffffffffffffffffffffffffffffffffffffffffffff8114610de25781811015610dd4576040517f08c379a0000000000000000000000000000000000000000000000000000000008152600401610dcb906119f2565b60405180910390fd5b610de18484848403610b91565b5b50505050565b600073ffffffffffffffffffffffffffffffffffffffff168373ffffffffffffffffffffffffffffffffffffffff161415610e58576040517f08c379a0000000000000000000000000000000000000000000000000000000008152600401610e4f90611a84565b60405180910390fd5b600073ffffffffffffffffffffffffffffffffffffffff168273ffffffffffffffffffffffffffffffffffffffff161415610ec8576040517f08c379a0000000000000000000000000000000000000000000000000000000008152600401610ebf90611b16565b60405180910390fd5b610ed38383836111c9565b60008060008573ffffffffffffffffffffffffffffffffffffffff1673ffffffffffffffffffffffffffffffffffffffff16815260200190815260200160002054905081811015610f59576040517f08c379a0000000000000000000000000000000000000000000000000000000008152600401610f5090611ba8565b60405180910390fd5b8181036000808673ffffffffffffffffffffffffffffffffffffffff1673ffffffffffffffffffffffffffffffffffffffff16815260200190815260200160002081905550816000808573ffffffffffffffffffffffffffffffffffffffff1673ffffffffffffffffffffffffffffffffffffffff1681526020019081526020016000206000828254610fec91906115e4565b925050819055508273ffffffffffffffffffffffffffffffffffffffff168473ffffffffffffffffffffffffffffffffffffffff167fddf252ad1be2c89b69c2b068fc378daa952ba7f163c4a11628f55a4df523b3ef8460405161105091906113ac565b60405180910390a36110638484846111ce565b50505050565b600073ffffffffffffffffffffffffffffffffffffffff168273ffffffffffffffffffffffffffffffffffffffff1614156110d9576040517f08c379a00000000000000000000000000000000000000000000000000000000081526004016110d090611c14565b60405180910390fd5b6110e5600083836111c9565b80600260008282546110f791906115e4565b92505081905550806000808473ffffffffffffffffffffffffffffffffffffffff1673ffffffffffffffffffffffffffffffffffffffff168152602001908152602001600020600082825461114c91906115e4565b925050819055508173ffffffffffffffffffffffffffffffffffffffff16600073ffffffffffffffffffffffffffffffffffffffff167fddf252ad1be2c89b69c2b068fc378daa952ba7f163c4a11628f55a4df523b3ef836040516111b191906113ac565b60405180910390a36111c5600083836111ce565b5050565b505050565b505050565b600081519050919050565b600082825260208201905092915050565b60005b8381101561120d5780820151818401526020810190506111f2565b8381111561121c576000848401525b50505050565b6000601f19601f8301169050919050565b600061123e826111d3565b61124881856111de565b93506112588185602086016111ef565b61126181611222565b840191505092915050565b600060208201905081810360008301526112868184611233565b905092915050565b600080fd5b600073ffffffffffffffffffffffffffffffffffffffff82169050919050565b60006112be82611293565b9050919050565b6112ce816112b3565b81146112d957600080fd5b50565b6000813590506112eb816112c5565b92915050565b6000819050919050565b611304816112f1565b811461130f57600080fd5b50565b600081359050611321816112fb565b92915050565b6000806040838503121561133e5761133d61128e565b5b600061134c858286016112dc565b925050602061135d85828601611312565b9150509250929050565b60008115159050919050565b61137c81611367565b82525050565b60006020820190506113976000830184611373565b92915050565b6113a6816112f1565b82525050565b60006020820190506113c1600083018461139d565b92915050565b6000806000606084860312156113e0576113df61128e565b5b60006113ee868287016112dc565b93505060206113ff868287016112dc565b925050604061141086828701611312565b9150509250925092565b600060ff82169050919050565b6114308161141a565b82525050565b600060208201905061144b6000830184611427565b92915050565b6000602082840312156114675761146661128e565b5b6000611475848285016112dc565b91505092915050565b600080604083850312156114955761149461128e565b5b60006114a3858286016112dc565b92505060206114b4858286016112dc565b9150509250929050565b6114c781611367565b81146114d257600080fd5b50565b6000813590506114e4816114be565b92915050565b600080604083850312156115015761150061128e565b5b600061150f858286016112dc565b9250506020611520858286016114d5565b9150509250929050565b611533816112b3565b82525050565b600060208201905061154e600083018461152a565b92915050565b7f4e487b7100000000000000000000000000000000000000000000000000000000600052602260045260246000fd5b6000600282049050600182168061159b57607f821691505b602082108114156115af576115ae611554565b5b50919050565b7f4e487b7100000000000000000000000000000000000000000000000000000000600052601160045260246000fd5b60006115ef826112f1565b91506115fa836112f1565b9250827fffffffffffffffffffffffffffffffffffffffffffffffffffffffffffffffff0382111561162f5761162e6115b5565b5b828201905092915050565b7f43616c6c657220646f6573206e6f742068617665206d696e74696e672072696760008201527f6874730000000000000000000000000000000000000000000000000000000000602082015250565b60006116966023836111de565b91506116a18261163a565b604082019050919050565b600060208201905081810360008301526116c581611689565b9050919050565b7f45524332303a2064656372656173656420616c6c6f77616e63652062656c6f7760008201527f207a65726f000000000000000000000000000000000000000000000000000000602082015250565b60006117286025836111de565b9150611733826116cc565b604082019050919050565b600060208201905081810360008301526117578161171b565b9050919050565b7f5472616e73666572206e6f7420616c6c6f7765642c2073656e6465722069732060008201527f6e6f74206d73672e73656e646572206f72206973417070726f7665642069732060208201527f66616c7365000000000000000000000000000000000000000000000000000000604082015250565b60006117e06045836111de565b91506117eb8261175e565b606082019050919050565b6000602082019050818103600083015261180f816117d3565b9050919050565b7f43616c6c6572206973206e6f742061646d696e00000000000000000000000000600082015250565b600061184c6013836111de565b915061185782611816565b602082019050919050565b6000602082019050818103600083015261187b8161183f565b9050919050565b7f45524332303a20617070726f76652066726f6d20746865207a65726f2061646460008201527f7265737300000000000000000000000000000000000000000000000000000000602082015250565b60006118de6024836111de565b91506118e982611882565b604082019050919050565b6000602082019050818103600083015261190d816118d1565b9050919050565b7f45524332303a20617070726f766520746f20746865207a65726f20616464726560008201527f7373000000000000000000000000000000000000000000000000000000000000602082015250565b60006119706022836111de565b915061197b82611914565b604082019050919050565b6000602082019050818103600083015261199f81611963565b9050919050565b7f45524332303a20696e73756666696369656e7420616c6c6f77616e6365000000600082015250565b60006119dc601d836111de565b91506119e7826119a6565b602082019050919050565b60006020820190508181036000830152611a0b816119cf565b9050919050565b7f45524332303a207472616e736665722066726f6d20746865207a65726f20616460008201527f6472657373000000000000000000000000000000000000000000000000000000602082015250565b6000611a6e6025836111de565b9150611a7982611a12565b604082019050919050565b60006020820190508181036000830152611a9d81611a61565b9050919050565b7f45524332303a207472616e7366657220746f20746865207a65726f206164647260008201527f6573730000000000000000000000000000000000000000000000000000000000602082015250565b6000611b006023836111de565b9150611b0b82611aa4565b604082019050919050565b60006020820190508181036000830152611b2f81611af3565b9050919050565b7f45524332303a207472616e7366657220616d6f756e742065786365656473206260008201527f616c616e63650000000000000000000000000000000000000000000000000000602082015250565b6000611b926026836111de565b9150611b9d82611b36565b604082019050919050565b60006020820190508181036000830152611bc181611b85565b9050919050565b7f45524332303a206d696e7420746f20746865207a65726f206164647265737300600082015250565b6000611bfe601f836111de565b9150611c0982611bc8565b602082019050919050565b60006020820190508181036000830152611c2d81611bf1565b905091905056fea26469706673582212201520f65e34375602775e221baf55953a1c2b3190f546574ab2e6c983e6abdf9f64736f6c63430008090033",
  "linkReferences": {},
  "deployedLinkReferences": {}
}