{
  "_format": "hh-sol-artifact-1",
  "contractName": "FMDToken",
  "sourceName": "contracts/FMDToken.sol",
  "abi": [
    {
      "inputs": [
        {
          "internalType": "address",
          "name": "_admin",
          "type": "address"
        }
      ],
      "stateMutability": "nonpayable",
      "type": "constructor"
    },
    {
      "anonymous": false,
      "inputs": [
        {
          "indexed": true,
          "internalType": "address",
          "name": "owner",
          "type": "address"
        },
        {
          "indexed": true,
          "internalType": "address",
          "name": "spender",
          "type": "address"
        },
        {
          "indexed": false,
          "internalType": "uint256",
          "name": "value",
          "type": "uint256"
        }
      ],
      "name": "Approval",
      "type": "event"
    },
    {
      "anonymous": false,
      "inputs": [
        {
          "indexed": true,
          "internalType": "address",
          "name": "from",
          "type": "address"
        },
        {
          "indexed": true,
          "internalType": "address",
          "name": "to",
          "type": "address"
        },
        {
          "indexed": false,
          "internalType": "uint256",
          "name": "value",
          "type": "uint256"
        }
      ],
      "name": "Transfer",
      "type": "event"
    },
    {
      "inputs": [],
      "name": "admin",
      "outputs": [
        {
          "internalType": "address",
          "name": "",
          "type": "address"
        }
      ],
      "stateMutability": "view",
      "type": "function"
    },
    {
      "inputs": [
        {
          "internalType": "address",
          "name": "owner",
          "type": "address"
        },
        {
          "internalType": "address",
          "name": "spender",
          "type": "address"
        }
      ],
      "name": "allowance",
      "outputs": [
        {
          "internalType": "uint256",
          "name": "",
          "type": "uint256"
        }
      ],
      "stateMutability": "view",
      "type": "function"
    },
    {
      "inputs": [
        {
          "internalType": "address",
          "name": "spender",
          "type": "address"
        },
        {
          "internalType": "uint256",
          "name": "amount",
          "type": "uint256"
        }
      ],
      "name": "approve",
      "outputs": [
        {
          "internalType": "bool",
          "name": "",
          "type": "bool"
        }
      ],
      "stateMutability": "nonpayable",
      "type": "function"
    },
    {
      "inputs": [
        {
          "internalType": "address",
          "name": "spender",
          "type": "address"
        },
        {
          "internalType": "bool",
          "name": "_isApproved",
          "type": "bool"
        }
      ],
      "name": "approveSpender",
      "outputs": [],
      "stateMutability": "nonpayable",
      "type": "function"
    },
    {
      "inputs": [
        {
          "internalType": "address",
          "name": "account",
          "type": "address"
        }
      ],
      "name": "balanceOf",
      "outputs": [
        {
          "internalType": "uint256",
          "name": "",
          "type": "uint256"
        }
      ],
      "stateMutability": "view",
      "type": "function"
    },
    {
      "inputs": [],
      "name": "decimals",
      "outputs": [
        {
          "internalType": "uint8",
          "name": "",
          "type": "uint8"
        }
      ],
      "stateMutability": "view",
      "type": "function"
    },
    {
      "inputs": [
        {
          "internalType": "address",
          "name": "spender",
          "type": "address"
        },
        {
          "internalType": "uint256",
          "name": "subtractedValue",
          "type": "uint256"
        }
      ],
      "name": "decreaseAllowance",
      "outputs": [
        {
          "internalType": "bool",
          "name": "",
          "type": "bool"
        }
      ],
      "stateMutability": "nonpayable",
      "type": "function"
    },
    {
      "inputs": [
        {
          "internalType": "address",
          "name": "spender",
          "type": "address"
        },
        {
          "internalType": "uint256",
          "name": "addedValue",
          "type": "uint256"
        }
      ],
      "name": "increaseAllowance",
      "outputs": [
        {
          "internalType": "bool",
          "name": "",
          "type": "bool"
        }
      ],
      "stateMutability": "nonpayable",
      "type": "function"
    },
    {
      "inputs": [
        {
          "internalType": "address",
          "name": "",
          "type": "address"
        },
        {
          "internalType": "address",
          "name": "",
          "type": "address"
        }
      ],
      "name": "isApproved",
      "outputs": [
        {
          "internalType": "bool",
          "name": "",
          "type": "bool"
        }
      ],
      "stateMutability": "view",
      "type": "function"
    },
    {
      "inputs": [
        {
          "internalType": "address",
          "name": "",
          "type": "address"
        }
      ],
      "name": "isMinter",
      "outputs": [
        {
          "internalType": "bool",
          "name": "",
          "type": "bool"
        }
      ],
      "stateMutability": "view",
      "type": "function"
    },
    {
      "inputs": [
        {
          "internalType": "address",
          "name": "minter",
          "type": "address"
        },
        {
          "internalType": "bool",
          "name": "_isMinter",
          "type": "bool"
        }
      ],
      "name": "manageMinters",
      "outputs": [],
      "stateMutability": "nonpayable",
      "type": "function"
    },
    {
      "inputs": [
        {
          "internalType": "address",
          "name": "receiver",
          "type": "address"
        },
        {
          "internalType": "uint256",
          "name": "mintAmt",
          "type": "uint256"
        }
      ],
      "name": "mint",
      "outputs": [],
      "stateMutability": "nonpayable",
      "type": "function"
    },
    {
      "inputs": [],
      "name": "name",
      "outputs": [
        {
          "internalType": "string",
          "name": "",
          "type": "string"
        }
      ],
      "stateMutability": "view",
      "type": "function"
    },
    {
      "inputs": [],
      "name": "symbol",
      "outputs": [
        {
          "internalType": "string",
          "name": "",
          "type": "string"
        }
      ],
      "stateMutability": "view",
      "type": "function"
    },
    {
      "inputs": [],
      "name": "totalSupply",
      "outputs": [
        {
          "internalType": "uint256",
          "name": "",
          "type": "uint256"
        }
      ],
      "stateMutability": "view",
      "type": "function"
    },
    {
      "inputs": [
        {
          "internalType": "address",
          "name": "stackholder",
          "type": "address"
        },
        {
          "internalType": "uint256",
          "name": "transferAmt",
          "type": "uint256"
        }
      ],
      "name": "transfer",
      "outputs": [
        {
          "internalType": "bool",
          "name": "success",
          "type": "bool"
        }
      ],
      "stateMutability": "nonpayable",
      "type": "function"
    },
    {
      "inputs": [
        {
          "internalType": "address",
          "name": "from",
          "type": "address"
        },
        {
          "internalType": "address",
          "name": "to",
          "type": "address"
        },
        {
          "internalType": "uint256",
          "name": "amount",
          "type": "uint256"
        }
      ],
      "name": "transferFrom",
      "outputs": [
        {
          "internalType": "bool",
          "name": "",
          "type": "bool"
        }
      ],
      "stateMutability": "nonpayable",
      "type": "function"
    }
  ],
  "bytecode": "0x60806040523480156200001157600080fd5b5060405162001fc438038062001fc48339818101604052810190620000379190620002b3565b6040518060400160405280600881526020017f464d44546f6b656e0000000000000000000000000000000000000000000000008152506040518060400160405280600381526020017f464d4400000000000000000000000000000000000000000000000000000000008152508160039080519060200190620000bb92919062000199565b508060049080519060200190620000d492919062000199565b50505080600560006101000a81548173ffffffffffffffffffffffffffffffffffffffff021916908373ffffffffffffffffffffffffffffffffffffffff160217905550600160066000600560009054906101000a900473ffffffffffffffffffffffffffffffffffffffff1673ffffffffffffffffffffffffffffffffffffffff1673ffffffffffffffffffffffffffffffffffffffff16815260200190815260200160002060006101000a81548160ff021916908315150217905550506200034a565b828054620001a79062000314565b90600052602060002090601f016020900481019282620001cb576000855562000217565b82601f10620001e657805160ff191683800117855562000217565b8280016001018555821562000217579182015b8281111562000216578251825591602001919060010190620001f9565b5b5090506200022691906200022a565b5090565b5b80821115620002455760008160009055506001016200022b565b5090565b600080fd5b600073ffffffffffffffffffffffffffffffffffffffff82169050919050565b60006200027b826200024e565b9050919050565b6200028d816200026e565b81146200029957600080fd5b50565b600081519050620002ad8162000282565b92915050565b600060208284031215620002cc57620002cb62000249565b5b6000620002dc848285016200029c565b91505092915050565b7f4e487b7100000000000000000000000000000000000000000000000000000000600052602260045260246000fd5b600060028204905060018216806200032d57607f821691505b60208210811415620003445762000343620002e5565b5b50919050565b611c6a806200035a6000396000f3fe608060405234801561001057600080fd5b506004361061010b5760003560e01c806395d89b41116100a2578063aa271e1a11610071578063aa271e1a146102f4578063adec9ba214610324578063dd62ed3e14610340578063f851a44014610370578063fbef5a061461038e5761010b565b806395d89b4114610246578063a389783e14610264578063a457c2d714610294578063a9059cbb146102c45761010b565b8063313ce567116100de578063313ce567146101ac57806339509351146101ca57806340c10f19146101fa57806370a08231146102165761010b565b806306fdde0314610110578063095ea7b31461012e57806318160ddd1461015e57806323b872dd1461017c575b600080fd5b6101186103aa565b604051610125919061126c565b60405180910390f35b61014860048036038101906101439190611327565b61043c565b6040516101559190611382565b60405180910390f35b61016661045f565b60405161017391906113ac565b60405180910390f35b610196600480360381019061019191906113c7565b610469565b6040516101a39190611382565b60405180910390f35b6101b4610498565b6040516101c19190611436565b60405180910390f35b6101e460048036038101906101df9190611327565b6104a1565b6040516101f19190611382565b60405180910390f35b610214600480360381019061020f9190611327565b6104d8565b005b610230600480360381019061022b9190611451565b6105d8565b60405161023d91906113ac565b60405180910390f35b61024e610620565b60405161025b919061126c565b60405180910390f35b61027e6004803603810190610279919061147e565b6106b2565b60405161028b9190611382565b60405180910390f35b6102ae60048036038101906102a99190611327565b6106e1565b6040516102bb9190611382565b60405180910390f35b6102de60048036038101906102d99190611327565b610758565b6040516102eb9190611382565b60405180910390f35b61030e60048036038101906103099190611451565b610939565b60405161031b9190611382565b60405180910390f35b61033e600480360381019061033991906114ea565b610959565b005b61035a6004803603810190610355919061147e565b6109f1565b60405161036791906113ac565b60405180910390f35b610378610a78565b6040516103859190611539565b60405180910390f35b6103a860048036038101906103a391906114ea565b610a9e565b005b6060600380546103b990611583565b80601f01602080910402602001604051908101604052809291908181526020018280546103e590611583565b80156104325780601f1061040757610100808354040283529160200191610432565b820191906000526020600020905b81548152906001019060200180831161041557829003601f168201915b5050505050905090565b600080610447610b89565b9050610454818585610b91565b600191505092915050565b6000600254905090565b600080610474610b89565b9050610481858285610d5c565b61048c858585610de8565b60019150509392505050565b60006012905090565b6000806104ac610b89565b90506104cd8185856104be85896109f1565b6104c891906115e4565b610b91565b600191505092915050565b600660003373ffffffffffffffffffffffffffffffffffffffff1673ffffffffffffffffffffffffffffffffffffffff16815260200190815260200160002060009054906101000a900460ff16610564576040517f08c379a000000000000000000000000000000000000000000000000000000000815260040161055b906116ac565b60405180910390fd5b61056e8282611069565b8173ffffffffffffffffffffffffffffffffffffffff16600073ffffffffffffffffffffffffffffffffffffffff167fddf252ad1be2c89b69c2b068fc378daa952ba7f163c4a11628f55a4df523b3ef836040516105cc91906113ac565b60405180910390a35050565b60008060008373ffffffffffffffffffffffffffffffffffffffff1673ffffffffffffffffffffffffffffffffffffffff168152602001908152602001600020549050919050565b60606004805461062f90611583565b80601f016020809104026020016040519081016040528092919081815260200182805461065b90611583565b80156106a85780601f1061067d576101008083540402835291602001916106a8565b820191906000526020600020905b81548152906001019060200180831161068b57829003601f168201915b5050505050905090565b60076020528160005260406000206020528060005260406000206000915091509054906101000a900460ff1681565b6000806106ec610b89565b905060006106fa82866109f1565b90508381101561073f576040517f08c379a00000000000000000000000000000000000000000000000000000000081526004016107369061173e565b60405180910390fd5b61074c8286868403610b91565b60019250505092915050565b6000600560009054906101000a900473ffffffffffffffffffffffffffffffffffffffff1673ffffffffffffffffffffffffffffffffffffffff163373ffffffffffffffffffffffffffffffffffffffff16148061083c5750600760008473ffffffffffffffffffffffffffffffffffffffff1673ffffffffffffffffffffffffffffffffffffffff16815260200190815260200160002060003373ffffffffffffffffffffffffffffffffffffffff1673ffffffffffffffffffffffffffffffffffffffff16815260200190815260200160002060009054906101000a900460ff165b61087b576040517f08c379a0000000000000000000000000000000000000000000000000000000008152600401610872906117f6565b60405180910390fd5b6108a883600560009054906101000a900473ffffffffffffffffffffffffffffffffffffffff1684610de8565b600560009054906101000a900473ffffffffffffffffffffffffffffffffffffffff1673ffffffffffffffffffffffffffffffffffffffff168373ffffffffffffffffffffffffffffffffffffffff167fddf252ad1be2c89b69c2b068fc378daa952ba7f163c4a11628f55a4df523b3ef8460405161092791906113ac565b60405180910390a36001905092915050565b60066020528060005260406000206000915054906101000a900460ff1681565b80600760003373ffffffffffffffffffffffffffffffffffffffff1673ffffffffffffffffffffffffffffffffffffffff16815260200190815260200160002060008473ffffffffffffffffffffffffffffffffffffffff1673ffffffffffffffffffffffffffffffffffffffff16815260200190815260200160002060006101000a81548160ff0219169083151502179055505050565b6000600160008473ffffffffffffffffffffffffffffffffffffffff1673ffffffffffffffffffffffffffffffffffffffff16815260200190815260200160002060008373ffffffffffffffffffffffffffffffffffffffff1673ffffffffffffffffffffffffffffffffffffffff16815260200190815260200160002054905092915050565b600560009054906101000a900473ffffffffffffffffffffffffffffffffffffffff1681565b600560009054906101000a900473ffffffffffffffffffffffffffffffffffffffff1673ffffffffffffffffffffffffffffffffffffffff163373ffffffffffffffffffffffffffffffffffffffff1614610b2e576040517f08c379a0000000000000000000000000000000000000000000000000000000008152600401610b2590611862565b60405180910390fd5b80600660008473ffffffffffffffffffffffffffffffffffffffff1673ffffffffffffffffffffffffffffffffffffffff16815260200190815260200160002060006101000a81548160ff0219169083151502179055505050565b600033905090565b600073ffffffffffffffffffffffffffffffffffffffff168373ffffffffffffffffffffffffffffffffffffffff161415610c01576040517f08c379a0000000000000000000000000000000000000000000000000000000008152600401610bf8906118f4565b60405180910390fd5b600073ffffffffffffffffffffffffffffffffffffffff168273ffffffffffffffffffffffffffffffffffffffff161415610c71576040517f08c379a0000000000000000000000000000000000000000000000000000000008152600401610c6890611986565b60405180910390fd5b80600160008573ffffffffffffffffffffffffffffffffffffffff1673ffffffffffffffffffffffffffffffffffffffff16815260200190815260200160002060008473ffffffffffffffffffffffffffffffffffffffff1673ffffffffffffffffffffffffffffffffffffffff168152602001908152602001600020819055508173ffffffffffffffffffffffffffffffffffffffff168373ffffffffffffffffffffffffffffffffffffffff167f8c5be1e5ebec7d5bd14f71427d1e84f3dd0314c0f7b2291e5b200ac8c7c3b92583604051610d4f91906113ac565b60405180910390a3505050565b6000610d6884846109f1565b90507fffffffffffffffffffffffffffffffffffffffffffffffffffffffffffffffff8114610de25781811015610dd4576040517f08c379a0000000000000000000000000000000000000000000000000000000008152600401610dcb906119f2565b60405180910390fd5b610de18484848403610b91565b5b50505050565b600073ffffffffffffffffffffffffffffffffffffffff168373ffffffffffffffffffffffffffffffffffffffff161415610e58576040517f08c379a0000000000000000000000000000000000000000000000000000000008152600401610e4f90611a84565b60405180910390fd5b600073ffffffffffffffffffffffffffffffffffffffff168273ffffffffffffffffffffffffffffffffffffffff161415610ec8576040517f08c379a0000000000000000000000000000000000000000000000000000000008152600401610ebf90611b16565b60405180910390fd5b610ed38383836111c9565b60008060008573ffffffffffffffffffffffffffffffffffffffff1673ffffffffffffffffffffffffffffffffffffffff16815260200190815260200160002054905081811015610f59576040517f08c379a0000000000000000000000000000000000000000000000000000000008152600401610f5090611ba8565b60405180910390fd5b8181036000808673ffffffffffffffffffffffffffffffffffffffff1673ffffffffffffffffffffffffffffffffffffffff16815260200190815260200160002081905550816000808573ffffffffffffffffffffffffffffffffffffffff1673ffffffffffffffffffffffffffffffffffffffff1681526020019081526020016000206000828254610fec91906115e4565b925050819055508273ffffffffffffffffffffffffffffffffffffffff168473ffffffffffffffffffffffffffffffffffffffff167fddf252ad1be2c89b69c2b068fc378daa952ba7f163c4a11628f55a4df523b3ef8460405161105091906113ac565b60405180910390a36110638484846111ce565b50505050565b600073ffffffffffffffffffffffffffffffffffffffff168273ffffffffffffffffffffffffffffffffffffffff1614156110d9576040517f08c379a00000000000000000000000000000000000000000000000000000000081526004016110d090611c14565b60405180910390fd5b6110e5600083836111c9565b80600260008282546110f791906115e4565b92505081905550806000808473ffffffffffffffffffffffffffffffffffffffff1673ffffffffffffffffffffffffffffffffffffffff168152602001908152602001600020600082825461114c91906115e4565b925050819055508173ffffffffffffffffffffffffffffffffffffffff16600073ffffffffffffffffffffffffffffffffffffffff167fddf252ad1be2c89b69c2b068fc378daa952ba7f163c4a11628f55a4df523b3ef836040516111b191906113ac565b60405180910390a36111c5600083836111ce565b5050565b505050565b505050565b600081519050919050565b600082825260208201905092915050565b60005b8381101561120d5780820151818401526020810190506111f2565b8381111561121c576000848401525b50505050565b6000601f19601f8301169050919050565b600061123e826111d3565b61124881856111de565b93506112588185602086016111ef565b61126181611222565b840191505092915050565b600060208201905081810360008301526112868184611233565b905092915050565b600080fd5b600073ffffffffffffffffffffffffffffffffffffffff82169050919050565b60006112be82611293565b9050919050565b6112ce816112b3565b81146112d957600080fd5b50565b6000813590506112eb816112c5565b92915050565b6000819050919050565b611304816112f1565b811461130f57600080fd5b50565b600081359050611321816112fb565b92915050565b6000806040838503121561133e5761133d61128e565b5b600061134c858286016112dc565b925050602061135d85828601611312565b9150509250929050565b60008115159050919050565b61137c81611367565b82525050565b60006020820190506113976000830184611373565b92915050565b6113a6816112f1565b82525050565b60006020820190506113c1600083018461139d565b92915050565b6000806000606084860312156113e0576113df61128e565b5b60006113ee868287016112dc565b93505060206113ff868287016112dc565b925050604061141086828701611312565b9150509250925092565b600060ff82169050919050565b6114308161141a565b82525050565b600060208201905061144b6000830184611427565b92915050565b6000602082840312156114675761146661128e565b5b6000611475848285016112dc565b91505092915050565b600080604083850312156114955761149461128e565b5b60006114a3858286016112dc565b92505060206114b4858286016112dc565b9150509250929050565b6114c781611367565b81146114d257600080fd5b50565b6000813590506114e4816114be565b92915050565b600080604083850312156115015761150061128e565b5b600061150f858286016112dc565b9250506020611520858286016114d5565b9150509250929050565b611533816112b3565b82525050565b600060208201905061154e600083018461152a565b92915050565b7f4e487b7100000000000000000000000000000000000000000000000000000000600052602260045260246000fd5b6000600282049050600182168061159b57607f821691505b602082108114156115af576115ae611554565b5b50919050565b7f4e487b7100000000000000000000000000000000000000000000000000000000600052601160045260246000fd5b60006115ef826112f1565b91506115fa836112f1565b9250827fffffffffffffffffffffffffffffffffffffffffffffffffffffffffffffffff0382111561162f5761162e6115b5565b5b828201905092915050565b7f43616c6c657220646f6573206e6f742068617665206d696e74696e672072696760008201527f6874730000000000000000000000000000000000000000000000000000000000602082015250565b60006116966023836111de565b91506116a18261163a565b604082019050919050565b600060208201905081810360008301526116c581611689565b9050919050565b7f45524332303a2064656372656173656420616c6c6f77616e63652062656c6f7760008201527f207a65726f000000000000000000000000000000000000000000000000000000602082015250565b60006117286025836111de565b9150611733826116cc565b604082019050919050565b600060208201905081810360008301526117578161171b565b9050919050565b7f5472616e73666572206e6f7420616c6c6f7765642c2073656e6465722069732060008201527f6e6f74206d73672e73656e646572206f72206973417070726f7665642069732060208201527f66616c7365000000000000000000000000000000000000000000000000000000604082015250565b60006117e06045836111de565b91506117eb8261175e565b606082019050919050565b6000602082019050818103600083015261180f816117d3565b9050919050565b7f43616c6c6572206973206e6f742061646d696e00000000000000000000000000600082015250565b600061184c6013836111de565b915061185782611816565b602082019050919050565b6000602082019050818103600083015261187b8161183f565b9050919050565b7f45524332303a20617070726f76652066726f6d20746865207a65726f2061646460008201527f7265737300000000000000000000000000000000000000000000000000000000602082015250565b60006118de6024836111de565b91506118e982611882565b604082019050919050565b6000602082019050818103600083015261190d816118d1565b9050919050565b7f45524332303a20617070726f766520746f20746865207a65726f20616464726560008201527f7373000000000000000000000000000000000000000000000000000000000000602082015250565b60006119706022836111de565b915061197b82611914565b604082019050919050565b6000602082019050818103600083015261199f81611963565b9050919050565b7f45524332303a20696e73756666696369656e7420616c6c6f77616e6365000000600082015250565b60006119dc601d836111de565b91506119e7826119a6565b602082019050919050565b60006020820190508181036000830152611a0b816119cf565b9050919050565b7f45524332303a207472616e736665722066726f6d20746865207a65726f20616460008201527f6472657373000000000000000000000000000000000000000000000000000000602082015250565b6000611a6e6025836111de565b9150611a7982611a12565b604082019050919050565b60006020820190508181036000830152611a9d81611a61565b9050919050565b7f45524332303a207472616e7366657220746f20746865207a65726f206164647260008201527f6573730000000000000000000000000000000000000000000000000000000000602082015250565b6000611b006023836111de565b9150611b0b82611aa4565b604082019050919050565b60006020820190508181036000830152611b2f81611af3565b9050919050565b7f45524332303a207472616e7366657220616d6f756e742065786365656473206260008201527f616c616e63650000000000000000000000000000000000000000000000000000602082015250565b6000611b926026836111de565b9150611b9d82611b36565b604082019050919050565b60006020820190508181036000830152611bc181611b85565b9050919050565b7f45524332303a206d696e7420746f20746865207a65726f206164647265737300600082015250565b6000611bfe601f836111de565b9150611c0982611bc8565b602082019050919050565b60006020820190508181036000830152611c2d81611bf1565b905091905056fea26469706673582212201520f65e34375602775e221baf55953a1c2b3190f546574ab2e6c983e6abdf9f64736f6c63430008090033",
  "linkReferences": {},
  "deployedLinkReferences": {}
}